S00F00005A335377697463682E733337E6
S2140000000010002061160000095E00000D5E000072
S214000010679C0200115E0000195E0000679C0200EB
S214000020679C0200679C0200679C0200679C0200B7
S2140000301D5E0000BC8A0300679C0200679C0200ED
S214000040679C0200155E0100295F0000679C0200A5
S2140000505556010045F0020041F00200355E0100F1
S21400006039F00200ED1D00004D1F0000679C0200E5
S214000070B10F0000B3950200679C0200679C020067
S214000080679C0200679C0200691F0000679C0200D4
S214000090679C0200679C0200679C0200679C020047
S2140000A0679C0200679C0200679C0200679C020037
S2140000B0695E01003DF00200E9700000A55E0100E7
S2140000C0679C020095810100679C0200679C020005
S2140000D0679C0200679C0200679C0200679C020007
S2140000E0679C0200679C0200679C0200679C0200F7
S2140000F0679C0200679C0200679C0200679C0200E7
S214000100679C0200679C0200679C020000000000DB
S214000110013800D0FCE770472DE9F04F93B0CDE9E9
S2140001200A329DED1C7BDDE91E530E9353EC172B14
S214000130CDE90801104619468DED067B209E28F075
S214000140C9FD80B1DDE90601C94B4FF0FF3228F04A
S214000150E9FD40B9DDE906014FF0FF326FF4801388
S21400016028F0C2FD80B10E9B2096CDE91E539DED72
S214000170067BDDE90A32DDE908018DED1C7B13B054
S214000180BDE8F04F00F08CB9DDE90601002200233F
S21400019028F0AAFD002800F03681DDE906A303F169
S2140001A0004BCBF30A5016F48063A0F2FF3008BF72
S2140001B006250F9328F0BCFA9DA3D3E9002328F068
S2140001C021FB9DA3D3E9002328F066F9CBF31304A3
S2140001D0894644F07F518046A64B0022504641F4A3
S2140001E0401128F057F996A3D3E9002328F00AFB1C
S2140001F002460B464046494628F04EF928F09CFD3C
S214000200044628F095FA90A3D3E900238046894651
S21400021028F0F8FA984B002228F03EF928F08CFDDA
S2140002208BA3D3E9002307464946404628F0EAFA5E
S21400023080463846894628F07BFA87A3D3E9002310
S21400024028F0E0FA02460B464046494628F022F9D6
S21400025002460B46CDE90C2328F0D4FADDE90C2340
S214000260804689461046194628F016F9834BCDE994
S214000270100100224046494628F0EEFB804B002243
S21400028028F00AF902460B464046494628F0E4FBA9
S2140002907C4B002228F000F902460B4640464946B1
S2140002A028F0DAFBDDE90C238046894600204FF073
S2140002B0804128F0EFF802460B464046494628F0B3
S2140002C0EBF802460B46DDE9100128F0C5FB07F205
S2140002D0FF376D4B002228F0DFF800223B0528F0A0
S2140002E091FA52465B468046894628F01BFD002858
S2140002F040F08C80CDE90C8904F16303C72B34BF32
S2140003000427052731051ED555A3D3E900235046FB
S214000310594628F0FDFC002800F0828052A3D3E95D
S21400032000235046594628F0DFFC002878D0A54226
S214000330C8BF2C1B4FF00007CCBF04F1FF350025CB
S21400034046F480663C460E9B9F4234BFA3EB0708EC
S2140003504FF0000816F0020903D0002F18BF4FF028
S21400036000083CB150465946DDE90C2328F074FBE2
S21400037082468B46DDE906010022002328F0B4FC05
S21400038010B10BF100439B4626F40063CDE90383CE
S214000390CDE900ABDDE90A32DDE90801029500F09F
S2140003A07FF802465FB316F0200F00F10105DDE985
S2140003B009130CBF65204520089EB047052305930A
S2140003C000220A23002CCDE9023207F1FF374FEA5C
S2140003D0D473B8BF644201932A46DDE908010A9B3C
S2140003E0049700942DF02CFF0246B9F1000F06D0BA
S2140003F00B9BC41A0B9B1A190E9BA34246D8104699
S21400040013B0BDE8F08FDDE906ABCAE61C4B002250
S2140004104046494628F020FB013CCDE90C016BE73D
S214000420002D90D00F9B002B8DD0013D8BE700BF99
S214000430FB799F501344D33FB3C8608B288AC63FCE
S21400044061436F63A787D23F71A379094F930A4030
S2140004501655B5BBB16B0240EF39FAFE422EE63FA9
S2140004602D431CEBE2361A3F0000000080842E412C
S214000470FFFFEF7F0000F83F0000E03F00002C4049
S21400048000002440000018400000F03FDDE909139A
S214000490089D2020A8470134ACE700BF00000000FC
S2140004A02DE9F04F97B0DDE920ABCDE90501CDE9A8
S2140004B00723504652465B465946DDE92257249E9E
S2140004C028F008FC70B90323CDE922762193B44BBB
S2140004D02093DDE90501DDE9072317B0BDE8F04FFD
S2140004E02DF0CEBD4FF0FF326FF4801350465946C4
S2140004F028F0FAFB28B104232193CDE92276A94BF4
S214000500E6E7A94B4FF0FF325046594628F00AFC62
S21400051068B1A64A06F00403002B08BF0322A44BCA
S2140005201CBF13460422CDE922762192D0E798A379
S214000530D3E900235046594628F0F4FB38B996A371
S214000540D3E900235046594628F0CEFB68B1DDE9D2
S2140005500723DDE90501CDE92376CDE920AB229519
S21400056017B0BDE8F04FFFF7D7BD00220023504676
S214000570594628F0B9FB002800F09A805B465246A0
S2140005800020002127F086FF012382468B46099330
S21400059016F4806400F08E80092D40F28E800EAB3B
S2140005A0A5F10902002430210134202C03F8011B98
S2140005B0A5EB040901D09442F6D15946504628F0DE
S2140005C0BBFB7C4B03EBC90393ED007B05468DED2F
S2140005D00A7B28F0ADF802460B465046594627F0EF
S2140005E059FFDDE90A2328F00DF902460B46CDE94E
S2140005F00C2328F0C9FB804628F08AF802460B46F2
S214000600DDE90C0127F046FF02460B46CDE90C2338
S214000610694B002228F086FB002851D008F101081B
S214000620404628F075F802460B46DDE90A0128F038
S21400063065FB10B101354FF00008B9F1000F50D13D
S214000640284628F075F802460B465046594627F0CD
S21400065021FF594B00228046894628F045FB30B1E1
S214000660554B00224046494628F05CFB10B1E8078F
S21400067000D501350EAB1A190A21202C0AD095FB9D
S214000680F1F001FB1055303502F8015B01340546E8
S2140006900028F2D106F00302012A5FD1002F5DD0B8
S2140006A0099A12B916F00C0F00D0013F302244E030
S2140006B009906DE74FF006097FE7A94600247CE71E
S2140006C0DDE90C013C4B002228F00EFB0028B4D1DB
S2140006D0B8F1000F02D018F0010FAED008F10108F3
S2140006E0ABE70EAB23440A21202C0DD0B8FBF1F06B
S2140006F001FB10823032B8F1090F03F8012B09F123
S214000700FF3904F1010411D8A1440EAA3021202C8F
S214000710B0D0A14504F101030AD11C4609F15803E3
S2140007200DEB03092E2309F8203CA3E78046DBE700
S214000730A1541C46EBE71A550134A7420ED9202CCB
S214000740F9D1CDE90034CDE90276DDE90723DDE90C
S21400075005012DF095FC17B0BDE8F08F202CF0D0E9
S214000760099A3AB104F158026A442D2102F8201C75
S2140007700134E6E7710704D504F158026A442B21D8
S214000780F4E73207DDD504F158026A442021EDE78C
S2140007900000000065CDCD410000000065CDCDC154
S2140007A049E203004DE20300FFFFEF7F40E2030053
S2140007B045E2030058E203000000E03F00000000AE
S2140007C070B58EB02C22002103A831F092FD642370
S2140007D04FF00232CDE9052308930B238DF8343011
S2140007E0514B1B880121D8078DF8101000F1968018
S2140007F0084617F0DDFE4D4B4D494E484E4C0A223A
S2140008001A704FF42873ADF8123016F091FF20607E
S21400081020B94A484FF4117105F0F4F92068052113
S2140008202EF05EFE20B145484FF4157105F0EAF94A
S214000830206800F0C9FB424B206819682EF085FA44
S21400084018F0CEFD0C256843099018F0C9FD6843E2
S21400085007900DEB0501206812F0D2FA20B1374858
S21400086040F2692105F0CEF93649206800222EF0C4
S214000870F7FA20B1314840F26B2105F0C3F9324E49
S214000880324D96F9000040F203532B807F284FF03C
S2140008900503AB7001D118F055F83378EB7018F0FB
S2140008A09FFD00EB80008000A88018F099FD0023D3
S2140008B0C000E880AB604FF0FF3019A3D3E90023F7
S2140008C04FF0FF3118F09CF8214920682EF0DDFE2D
S2140008D0206802A92EF09EFA20B118484FF429711C
S2140008E005F090F9042220680DEB02012EF01BFAA9
S2140008F0042804D0114840F2A72105F083F901A985
S21400090001202EF0F6FF05F0C3FA012019F008F8D2
S21400091029F034FD19F02EF817F0CEFE0EB070BD9B
S2140009200A0020FF420300001C400020344900203B
S214000930D98501008C12002048390020DE00040012
S2140009400C11002042490020D01500203C39002020
S214000950798701000348044B834202D0034B03B15E
S214000960184770471C1600201C16002000000000C8
S2140009700548064B1B1AD90F01EBA301491002D0FC
S214000980034B03B1184770471C1600201C160020A6
S2140009900000000010B5064C237843B9FFF7DAFFD5
S2140009A0044B13B10448AFF300800123237010BD3D
S2140009B09E40002000000000E804040008B5054B37
S2140009C01BB105490548AFF30080BDE80840FFF7B6
S2140009D0CFBF00BF0000000058180020E804040045
S2140009E0A3F5803A704700BF174B002B08BF134B88
S2140009F09D46FFF7F5FF00218B460F461348144A25
S214000A00121A31F076FC0E4B002B00D098470D4B97
S214000A10002B00D098470020002104000D000D4850
S214000A20002802D00C48AFF3008028F013FD200009
S214000A30290028F07FFD28F03FFB00BF00000800DB
S214000A400000000000000000001000201C1600201F
S214000A50A8490020000000000000000007B50120A3
S214000A6009F0E8FE044B0090044A0121042009F036
S214000A7029FA03B05DF804FBDE270300C023030059
S214000A8030B585B02BF02BFE0228244D044627D126
S214000A900EF0DEF92D780346012018717DB9204B43
S214000AA0224606210EF056F92CF0BCF91D4B00909C
S214000AB01D4A0121042009F005FA05B030BD012DBC
S214000AC0F2D105F0F9F900221423C0B20193009088
S214000AD0CDE90222154B082128460EF03BF9E3E744
S214000AE02B78012B15D12BF018FA114B114A0190D7
S214000AF000920121104A042009F0E4F9FF210F4872
S214000B0008F0FCFE00211AF087FD0D4B01221A703A
S214000B10D3E70AF06FFF0B4BE8E700BF9F400020CB
S214000B20C7710300F723030013240300F223030016
S214000B30E3230300DE2703000824030090180020A8
S214000B40A0400020ED23030008B50F4B1B78ABB187
S214000B502BF0C5FD02280CD00C4829F05EF9FF21C9
S214000B600B4808F0CBFEBDE808404FF47A611AF057
S214000B7053BDBDE80840054829F049B92BF0AFFD44
S214000B800228F6D008BD00BFA04000209C710300DC
S214000B909018002010B5FF231A460949094808F0A6
S214000BA071FEFF231A460849084808F06BFEFF232B
S214000BB0BDE81040064907481A4608F063BE00BF65
S214000BC0810A0000B0180020490B00009018002091
S214000BD05D0A000070180020912802D1044829F010
S214000BE019B9902802D1024829F011B9704700BF00
S214000BF09C71030013B50D4B0190044600930C4AFC
S214000C000C4B0121042009F05DF924B10A4B0022A7
S214000C101A7002B010BDFF21084808F06FFE40F6BB
S214000C20B83102B0BDE810401AF0F6BCEFDB0300A6
S214000C3008240300ED230300A040002070180020C5
S214000C4007B500230193094B094A00930121094B7C
S214000C50042009F037F9FF21074808F04FFE40F658
S214000C60B83103B05DF804EB1AF0D6BCEFDB030036
S214000C7008240300E32303007018002007B5074B81
S214000C8000930121064B074A0191042009F01AF946
S214000C90054B00221A7003B05DF804FBEFDB03007F
S214000CA0E323030008240300A040002007B5064BFA
S214000CB00090064A0121042009F004F9044B0022A2
S214000CC01A7003B05DF804FBEFDB0300C0230300DB
S214000CD0A04000200F4A1168814210B50ED129F0BD
S214000CE009F80446A8B90C4B1870FF210B4808F009
S214000CF005FE2146BDE810401AF08EBC52688242BE
S214000D0007D128F0F7FF044618B9034B01221A70E2
S214000D10EBE710BDB41000209F400020B018002064
S214000D2008B505F045F9FF21044808F0E7FDBDE8E1
S214000D3008404FF47A711AF06FBC00BFD01800203C
S214000D4010B5044670B9FF23074908481A4608F04C
S214000D5099FDFF21054808F0D1FD2146BDE8104069
S214000D601AF05ABC10BD00BF210D0000D01800209C
S214000D7030B50A4C0A4B22680A4D1A6085B00A4BF9
S214000D802B600A4B019304F08DF92B68029001A9A1
S214000D902068039329F0E7FC05B030BDA4100020BE
S214000DA0CC260020C826002098100020D97003000A
S214000DB0014B186829F0EBBCA410002038B5084D8C
S214000DC004F070F92B680446D3F8B00204F05EF91C
S214000DD0286829F0EFFC2046BDE8384004F056B9F4
S214000DE0A410002038B501F027FD0E480E4C012156
S214000DF001F0ACF901221146002001F081FC022529
S214000E0001221146C4F88050002001F079FC01222E
S214000E10C4F884501146002001F072FCC4F88850D3
S214000E20002038BD30253E0000400E4008B5254B5A
S214000E3001225A6402F0FCFC234B90B94AF6E852B1
S214000E40C3F89021D3F8982142F00402C3F8982101
S214000E50C3F89001D3F8642142F40052C3F8642129
S214000E6001E00128F6D0194A136A23F4441343F428
S214000E7088131362A2F58042136843F480731360EC
S214000E8002F54052D2F8A43143F4F843C2F8A43134
S214000E9004F0DEF800F040FB04F076F804F0C4F846
S214000EA004F088F8FFF79EFF29F0E8FF00F026FB25
S214000EB000F070FC04F0DAFB01F064F8BDE80840CE
S214000EC005F07EBA00000E4000300E4000400E4096
S214000ED030B5234D0FCD97B00FAC0FC495E8070083
S214000EE0302384E807008DF855301E4A1E4BCDE9A6
S214000EF003234FF08073059303F1022306934FF00C
S214000F00F0511E23CDE907130E2200210DF12E000D
S214000F1031F0EFF9154B4FF44020CDE909030C23CF
S214000F208DF82C300D238DF82D30114B0C9320238B
S214000F300D93104B009309A903AB0FAA0E4804F0BB
S214000F40C1FA9DF83A30002B04460CBF032100215D
S214000F504FF4E13028F078FE204617B030BD00BFD1
S214000F606871030000000140004204001C000140BC
S214000F70A1400020AC1B0020001C0020012905D841
S214000F80034B1B68186808B1436A1847704700BFD0
S214000F90A810002008B50449044805F0BFFABDE8CB
S214000FA00840FFF795BF00BFAC100020241C0020AF
S214000FB001482AF0F9B800BF001C0020014B1A6A4D
S214000FC018681047001C002008B511F047FF024BB8
S214000FD000221A7008BD00BFC1400020014828F05A
S214000FE084BE00BF84710300014828F00DBF00BF17
S214000FF09C7103001FB50849034602AA08680979D0
S21400100002908DF80C10009205210022012007F0B6
S214001010D5FD05B05DF804FBB47103001FB50A4AA0
S21400102003461068029002A990889279ADF80C00E9
S2140010308DF80E20009144224FF44071012007F0F5
S214001040BDFD05B05DF804FBBA7103001FB5084985
S214001050034602AA0868097902908DF80C100092DF
S21400106005214222012007F0A9FD05B05DF804FB2A
S214001070C27103001FB50849034602AA0868097929
S21400108002908DF80C10009205214022012007F0F6
S21400109095FD05B05DF804FBB47103001FB5074A63
S2140010A0039203AA034600924FF4407141220120A6
S2140010B007F084FD05B05DF804FB00BF01022121A6
S2140010C01FB50949034602AA0868097902908DF8F7
S2140010D00C1000924FF440714022012007F06EFD84
S2140010E005B05DF804FB00BFC87103001FB50949D1
S2140010F0034602AA0868097902908DF80C1000923F
S2140011004FF440714322012007F058FD05B05DF80A
S21400111004FB00BFC87103001FB50949034602AAB5
S2140011200868097902908DF80C1000924FF440710F
S2140011304222012007F042FD05B05DF804FB00BF27
S214001140BC7103001FB5064A039203AA009201224F
S21400115003460821104607F031FD05B05DF804FB94
S214001160010121211FB5074A039203AA03460092F4
S2140011704FF440710822012007F020FD05B05DF80D
S21400118004FB00BF121221211FB5094A034610684E
S2140011909288ADF80C2002AA029000924FF440719B
S2140011A04B22012007F00AFD05B05DF804FB00BFE6
S2140011B0CE7103001FB5074A039203AA00920122CC
S2140011C003464FF44071104607F0F8FC05B05DF892
S2140011D004FB00BF010121211FB5074A039203AAA1
S2140011E0034600924FF440710422012007F0E6FC0B
S2140011F005B05DF804FB00BF010121211FB50949B8
S214001200034602AA0868097902908DF80C1000922D
S2140012104FF440710722012007F0D0FC05B05DF8BE
S21400122004FB00BFCF7103001FB5074A039203AA51
S214001230034600924FF440710A22012007F0BEFCDC
S21400124005B05DF804FB00BF020221211FB5094965
S214001250034602AA0868097902908DF80C100092DD
S2140012604FF440710022012007F0A8FC05B05DF89D
S21400127004FB00BFD57103001FB50949034602AA47
S2140012800868097902908DF80C1000924FF44071AE
S2140012900622012007F092FC05B05DF804FB00BFB3
S2140012A0D57103001FB5064A039203AA03460092AF
S2140012B008210022012007F081FC05B05DF804FB40
S2140012C0010221211FB5074A039203AA0346009292
S2140012D04FF440710322012007F070FC05B05DF862
S2140012E004FB00BF010221211FB50949034603AADA
S2140012F008888978ADF80C008DF80E10009206214B
S2140013004222012007F05AFC05B05DF804FB00BF3E
S214001310DB7103001FB5094903AA0346009208883B
S2140013208978ADF80C0005228DF80E1001201146C4
S21400133007F044FC05B05DF804FB00BFDF71030056
S2140013401FB50849034602AA0868097902908DF875
S2140013500C10009208210222012007F02FFC05B095
S2140013605DF804FBD57103001FB50949034602AAC0
S2140013700868097902908DF80C1000924FF44071BD
S2140013800922012007F01AFC05B05DF804FB00BF37
S214001390E37103001FB50A4A03461068029002A9CB
S2140013A090889279ADF80C008DF80E2000914C22B2
S2140013B04FF44071012007F001FC05B05DF804FB16
S2140013C0E97103001FB50949034602AA08680979AE
S2140013D002908DF80C1000924FF44071022201200A
S2140013E007F0ECFB05B05DF804FB00BFF1710300ED
S2140013F01FB50949034602AA0868097902908DF8C4
S2140014000C1000924FF440710522012007F0D6FB25
S21400141005B05DF804FB00BFF17103001FB5094974
S214001420034603AA08888978ADF80C008DF80E10DC
S214001430009208210622012007F0C0FB05B05DF8E7
S21400144004FB00BFF77103000A46014928F089BA79
S214001450998A03000A46014928F083BA948A030051
S2140014600A46014928F07DBA8F8A03000A460149D8
S21400147028F077BA888A03000A46014928F071BA2C
S214001480818A03000A46014928F06BBA7A8A03006B
S2140014900A46014928F065BA738A03000A460149DC
S2140014A028F05FBA6C8A03000A46014928F059BA48
S2140014B0658A03000A46014928F053BA588A030091
S2140014C00A46014928F04DBA4B8A03000A460149EC
S2140014D028F047BA488A03000A46014928F041BA6C
S2140014E0418A03000A46014928F03BBA388A0300BD
S2140014F00A46014928F035BA2F8A030008B5054880
S214001500012100F023FE28F01DF8BDE8084000F099
S2140015101DB800BF00350A000148012100F016BEC4
S21400152000350A0007B5082028F057FC02238DF87E
S21400153000306846044B019328F04AFB082003B0AD
S2140015405DF804EB28F054BC006A18102DE9F0434F
S2140015503B4D3C4FDFF80091DFF800810FCD89B09E
S21400156001AC0FC495E8070084E80700364C3748FE
S214001570012100F0EBFD3846012100F0E7FD0125D2
S214001580334B039301A920468DF8125028F06CFEC9
S2140015902B4604220621022001F0C2FE2A46002322
S2140015A00721022001F0BCFE2B460422082102205F
S2140015B001F0B6FE042211462B46002001F0B0FED4
S2140015C0244BA3670B23636710264FF4487006F07E
S2140015D04DF8C9F80C60142006F048F8C8F80C60FE
S2140015E0232006F043F8C9F80C60B921204628F0FD
S2140015F07AFE00231A46C8F80C600621022001F085
S2140016008FFE00231A460721022001F089FE2B4692
S21400161000220821022001F083FE002210462B46FD
S214001620042101F07DFE204602F05AF90021A16750
S2140016303846616700F08AFD09B0BDE8F08300BF58
S214001640A08A0300005204000004014000350A008E
S21400165000127A000B0B000B00A0004400A000460E
S21400166008B500F083F8124B12498B4212D3124B86
S214001670124900208B4218D3FFF7B6F9186850F8C5
S2140016802240586840F82240013298688242F5D3DA
S2140016900C33EAE70022F8E71C6844F8220001321F
S2140016A05C68A242F8D30833E4E70022F8E700BFFC
S2140016B0F0040400FC040400FC040400FC04040021
S2140016C00048704700F04902104AD2F8943003F000
S2140016D00703023B032B13D8DFE803F00C14020EBB
S2140016E00B4B1B68D2F80001C0F304200130B3FB9B
S2140016F0F0F07047074BF4E7074B1B685B08F1E711
S214001700054BEEE74FF40043ECE700BF00400E4009
S214001710DC100020E0100020D410002008B5FFF7F1
S214001720D3FF054BD3F80831C3F308230133B0FBCE
S214001730F3F0024B186008BD00400E40D8100020A1
S214001740014B1868704700BFE0100020054B18607A
S214001750054BD3F8943003F00703022B01D1FFF7B3
S214001760DDBF7047E010002000400E40044B054AE5
S2140017709A60D3F8882042F47002C3F88820704735
S21400178000ED00E000000000014B1868704700BF45
S214001790DC1000200F4BD3F82838A3F17E62A2F5A8
S2140017A08432B2F5104F10B511D219680A4A914228
S2140017B00DD10A4C227812F0FD0F01D0002010BD8A
S2140017C0DB6998470028FAD101232370F6E74FF427
S2140017D08170F4E70000E10F07B0CD5EC240002044
S2140017E070B5D0B1C9B10E4E431E013913F8014F82
S2140017F0325D02F00302012A11F8012FB55C05F0F4
S2140018000305204608BF04F12000012D08BF203242
S214001810801A01D1002CE9D170BD0120FCE700BF81
S214001820E703040037B5046801210546124800F0B6
S2140018308DFC002361792079012201F071FD617928
S214001840207928F05CFAB0FA80F35B092370A3795C
S214001850022B0ED100F01EFB084960792A4600F0E4
S21400186043FB0123617902462079CDE9003301F07C
S21400187013FD002003B030BD00350A00199D02009C
S21400188008B52948012100F061FC01230422022149
S214001890052001F045FD002001F0F2FC234B01225B
S2140018A0C3F810281146042000F02AFF204800F054
S2140018B09FFD204BD3F8F02042F00102C3F8F02041
S2140018C0D3F8FC2042F08072C3F8FC20A3F55D43F9
S2140018D0194A1A6000F5D520184B00F2FC40B0FB00
S2140018E0F3F0174B013802221861C3F8F0204FF4CA
S2140018F08072C3F804234FF06043124AC3F8B02F37
S214001900114AC3F8802ED3F8002E42F48072C3F832
S214001910002EFF2283F82020D3F8002E22F48072B7
S214001920C3F8002E002008BD00350A0000801442CF
S21400193006000E0000ED00E0FF030040F8590D0021
S214001940000004E055CEACC5090001004FF060432E
S21400195030B5D3F8802ED20715D501240B4D844020
S214001960D5F8FC2042F08072C5F8FC20D3F8002E93
S2140019702243C3F8002E53F82020002AF0D003F8A4
S2140019802010002030BD1120FCE700BF00ED00E075
S21400199010B501210446094800F0D8FB084801218B
S2140019A000F0D4FBA37820786178B3FA83F35B0960
S2140019B0042201F0B5FC002010BD00BF4041050028
S2140019C000350A002DE9F04F9A46554B85B01B7836
S2140019D0DDF83C909DF844B0DDF8508006460F4692
S2140019E01546002B00F09680072A00F295800E9B85
S2140019F0002B00F09180B9F1000F00F08D80129B53
S214001A00B3F5006F00F38880012803D1109B002BEC
S214001A1000F08280434B03EB05131B7B002B7DD02D
S214001A20414C10220021684630F063FC04EB45145C
S214001A3010229FBB3946204630F05BFC43F2100371
S214001A406380BBF1000F03D1E37843F00303E37038
S214001A50354A0E9BCDF800A002EB451CCCE901935D
S214001A60129B581E9DF84C30690103F00303C0F327
S214001A700A009B0643EA001E53582C4818404EEABC
S214001A800003012E535017D0B8F1000F2ED19CF84A
S214001A90023068F304138CF8023027E00021204659
S214001AA030F027FC4FF444736380BBF1000FCFD1B6
S214001AB0E37843F03003CAE71323CCF80C309CE8F5
S214001AC00F000CF1100E8EE80F00DCF81C20109BA7
S214001AD0CCF814306FF0030161F39F02012FCCF8AD
S214001AE01C2003D1CCF81890CCF804300D4A2901FC
S214001AF002EB051342F80180159A5A600027284623
S214001B00224669469F605E7301F08EFC384605B03B
S214001B10BDE8F08F0648FAE70648F8E70648F6E715
S214001B20C34000202C1D00202C1C00200F80FFF33B
S214001B30028000F0018000F0078000F038B5124BFC
S214001B401B780546DBB1E0B128F017FA0F4A0023F0
S214001B501146147B54B92B601A0101EB03130125BF
S214001B608C501D7328F00FFA204638BD0133082B21
S214001B7002F11002EDD128F006FA0548F5E705480F
S214001B80F3E70548F1E700BFC34000202C1D002006
S214001B90048000F0028000F0018000F038B528F0E4
S214001BA0ECF90C4A05460023147B6CB90133082B6C
S214001BB002F11002F8D101F0EDFB074B28461C702D
S214001BC028F0E1F9204603E0284628F0DCF903482F
S214001BD038BD00BF2C1D0020C3400020058000F04B
S214001BE00D4B1B7810B5044693B1072812D828F081
S214001BF0C4F90A4B03EB04131A7B2AB100241C73A6
S214001C0028F0C1F9204610BD28F0BDF90448FAE7CF
S214001C100448F8E70448F6E7C34000202C1D0020DF
S214001C20068000F0028000F0018000F013B5164B2D
S214001C301868019000238DF8043028F09EF9134BA5
S214001C401C7824B128F09FF9114802B010BD01227B
S214001C501A7028F098F90F4B1C731C7783F82C40E9
S214001C6083F83C4083F84C4083F85C4083F86C4033
S214001C7083F87C4004230DEB03008DF8073001F059
S214001C80A9FB2046E1E700BF0C8B0300C340002001
S214001C90038000F02C1D00200A4A127808B55AB1BD
S214001CA007280BD8084A02EB00131B7B43B1002120
S214001CB001F086FB002008BD0448FCE70448FAE76C
S214001CC00448F8E7C34000202C1D0020028000F0E6
S214001CD0018000F0078000F00A4A127808B55AB171
S214001CE007280BD8084A02EB00131B7B43B10121DF
S214001CF001F066FB002008BD0448FCE70448FAE74C
S214001D000448F8E7C34000202C1D0020028000F0A5
S214001D10018000F0078000F00A4A127808B552B138
S214001D2007280AD8084A02EB00131B7B3BB101F0D8
S214001D30CBFB002008BD0548FCE70548FAE7054848
S214001D40F8E700BFC34000202C1D0020028000F0F2
S214001D50018000F0078000F00D4B1B7893B1072838
S214001D6012D889B10B4B03EB00131B7B73B10A4BE4
S214001D701A6E01238340134214BF012300230B7005
S214001D80002070470548704705487047054870476B
S214001D90C34000202C1D002000200E40028000F0D2
S214001DA0018000F0078000F00B4A127810B50C4650
S214001DB062B107280CD859B1084A02EB00131B7B06
S214001DC043B101F097FB2070002010BD0448FCE7EB
S214001DD00448FAE70448F8E7C34000202C1D00201A
S214001DE0028000F0018000F0078000F02DE9F0414D
S214001DF0DFF86480D8F86070D8F86C301F4000D5E3
S214001E00FEE7134C01260025374218D02368C8F891
S214001E106860A3B1A16862680131A160284698474E
S214001E20637B012B0BD150B90A4B03EB45131A7B8E
S214001E3060F341021A731A7F60F341021A77013584
S214001E40082D4FEA460604F11004DDD1BDE8F08106
S214001E502C1D00202C1C002000200E4070B50C4EBF
S214001E600446012504B970BD94FAA4F0B0FA80F0D7
S214001E7006EB001205FA00F324EA03045368002B6D
S214001E80F0D0117B11B191689847EBE79847E9E7E6
S214001E90AC1D002008B5122000F07CFD28B1084BD0
S214001EA04FF48022C3F880211A600A2000F072FDE9
S214001EB028B1034B4FF48062C3F880211A6008BD36
S214001EC000E100E038B505460C4628F056F8054B0C
S214001ED003EB051300225C601A73BDE8384028F057
S214001EE052B800BFAC1D0020F8B505460E46174692
S214001EF028F043F8134BD3F8282422FA05F3DB071F
S214001F0005F0FC012C4612D500230133DBB2042B6E
S214001F1004D1FF2428F037F82046F8BDEC1804F06A
S214001F2003040C4422FA04FC1CF0010FEDD1FF2C34
S214001F30F0D0054B03EB04130122C3E901671A73C3
S214001F40E8E700BF00A00040AC1D0020054BD3F81A
S214001F502804D3F81C24104000F05530C3F824049D
S214001F60FFF77CBF00A00040054BD3F82804D3F849
S214001F701C24104000F0AA30C3F82404FFF76EBFFC
S214001F8000A00040024B1968024B186810F0D4BA43
S214001F90E41000200411002070B594002246054687
S214001FA00E4628F01AF9431C0AD058B92246314684
S214001FB0284630F074F90028034808BF002070BD9A
S214001FC00248FCE70248FAE710E000F021E000F0E3
S214001FD024E000F010B5044601F03CFB431C10D092
S214001FE088B901F02DFC20F00300234620449842D7
S214001FF001D1002010BD53F8042B0132F7D003485E
S214002000F8E70348F6E70348F4E700BF0EE000F001
S21400201021E000F024E000F008B527F09FFF014B18
S214002020186008BD9C260020014B186827F09ABF50
S2140020309C2600200C4B984205D90C4B984210D891
S2140020400122012301E00022134609490B640949D5
S214002050D1F8003123F0807343EA0263C1F80031FF
S21400206070470222EDE700BF0048E8010090D00369
S2140020700000C84300400E400F4B5B680F4B30B566
S21400208000221C46C9B21D798D4202D11D688542C8
S2140020900DD20132052A03F10803F4D10321064AC2
S2140020A0536823F0407343EA0163536030BD04EB8A
S2140020B0C2046179F3E700BF00000E40508B0300B6
S2140020C038B5074C41F67133256C2364FFF7F8FAF0
S2140020D0ADB20021FFF7D0FF0DB10023236438BD59
S2140020E000000E40044BDB6B5B0604D4034AD2F8B8
S2140020F0C830002BFBD1704700300E400000C643AE
S21400210008B5FFF7EFFF024B5868C0F3014008BD63
S21400211000300E40044BD3F84421D20703D4D3F842
S21400212040211042FBD1704700400E4038B5064CA7
S214002130256C41F671332364ADB2FFF79DFF0DB1F8
S2140021400023236438BD00BF00000E4038B5C0F33E
S2140021500323013B092B11D8DFE803F005271010F5
S2140021602B221D101511154DC0F3043405F1424500
S21400217005F5801504EBC5008000016038BD104DE4
S214002180C0F30434F2E70F4DC0F304344FF480304C
S214002190FFF7C0FFEAE7C0F304340B4D1020F7E763
S2140021A0C0F30434094D0120F2E7094DC0F30434AE
S2140021B0DCE7084DC0F30434D8E700BF00400E400B
S2140021C050410E40F0400E40E8400E40E0400E40C9
S2140021D0C0400E40B0400E40C0F30313013B092B35
S2140021E02AD8DFE803F0050B0F1929291F23374BE0
S2140021F0274BD3F80001C0F304207047244BD3F8D4
S2140022001401F8E7224BD3F80031C3F3006301331F
S21400221001209840013870471D4BD3F80C01C0F3DD
S214002220082070471A4BD3F80801F8E7194B984274
S21400223004D0194B984207D000207047144BD3F8AF
S214002240203103F00F03E3E7114BD3F82031C3F33B
S2140022500113DDE7114B98420CD003F5B01303F5DC
S21400226080539842E8D10A4BD3F82831C3F30123B0
S2140022700433CDE7064BD3F82831E8E7084B9842FD
S214002280DAD1034BD3F8300100F00300704700BFEB
S21400229000400E408006160080162E0090171A008A
S2140022A0A009140000F00F000138072850D8DFE816
S2140022B000F00415244F34384F402B4BD3F894309D
S2140022C003F00703023B052B06D8DFE803F049249A
S2140022D03F0305430B20704705207047224BD3F879
S2140022E0800000F0070002283DD0042836D00128E0
S2140022F008BF032018BF012070471B4BD3F884305B
S21400230003F00703013B032B03D8DFE803F0041FA9
S21400231025270120704703207047134BD3F8880009
S214002320DFE7114B1B6F13F0010F0CBF07200920CE
S21400233070470D4BD3F85C3103F03003202B0FD0E1
S214002340302B0FD0102B08BF0720D3E70220704792
S214002350002070470C207047062070470A20704700
S214002360042070470820704700400E4008B501461C
S214002370FFF798FF1A4B994211D01A4B994212D088
S214002380194B994204D1194BD3F8800000F007008E
S2140023900138032821D8DFE800F00A0E1612134B86
S2140023A0D3F88400F2E7114BD3F88800EEE7BDE8D7
S2140023B0084027F059BCBDE80840FFF7E5B9BDE87E
S2140023C0084027F054BCFFF77FF9084BD3F80031DC
S2140023D0C3F300630133D84008BD0020FCE700BF0C
S2140023E0030020000500240002001E0000400E40EE
S2140023F000F47813B3F5B01F10B5044674D025D892
S214002400B3F5402F5ED010D8B3F5802F49D005D84D
S2140024103BB1B3F5003F4FD0002010BDB3F5202FE1
S214002420FAD1BDE81040FFF74FB9B3F5801F00F0B2
S2140024308480B3F5A01F4DD0B3F5602FECD14A4889
S214002440FFF730FF072878D00928E9E7B3F5381FEB
S21400245053D013D8B3F5001F58D00AD8B3F5D01F01
S21400246056D0B3F5F01FD7D14048BDE81040FFF76F
S2140024707DBFB3F5101FCFD13D48F6E7B3F5481F33
S2140024804DD0B3F5781F65D0B3F5401FC4D1394899
S214002490FFF76CFF384BD3F82831C3F3012304331E
S2140024A020E0FFF711F9344BD3F80C31C3F30823BF
S2140024B00133B0FBF3F0B0E7FFF706F92E4BD3F885
S2140024C00831F3E7FFF700F92B4BD3F81431C3F3C9
S2140024D00423EDE72648FFF749FF274BD3F83031B2
S2140024E003F00303D84098E72048FFF73FFF224B4E
S2140024F0D3F8203103F00F03F4E71C48FFF736FF4C
S2140025001D4BD3F82031C3F30113EBE71948ACE7B2
S2140025101848FFF72BFF184BD3F82831F3E7174876
S214002520FFF7C0FE072808D0082809D004287FF443
S21400253073AFBDE81040FFF703B9114B18686CE79E
S214002540FFF7C2F80C4BD3F80031C3F3042303FBA8
S214002550000062E7FFF7B8F80146204627F0F9FCCE
S214002560B1FBF0F059E700BF06000E0002001E00A7
S214002570050024000300200000400E40B800320092
S2140025800811002010B5FFF79BFD094B07225A677C
S214002590FFF79AF8FFF74EFDFFF7C0F80446FFF77F
S2140025A0AFFD01462046BDE81040FFF7BFBD00BFA7
S2140025B000400E40014B1880704700BF42150020B7
S2140025C0014B1880704700BF4015002010B5042846
S2140025D013D8DFE800F047032F132100294AC1F380
S2140025E00801D2F86838002BFBD1274A136A23F477
S2140025F0FF7323F001030B43136210BD214A01F061
S2140026007F01D2F86038002BFBD11F4A136923F0F4
S2140026107F030B431361F0E71A4A01F07F01D2F8FB
S2140026206438002BFBD1184A936923F07F030B43D1
S2140026309361E2E7144AD2F89030536A23F03003ED
S21400264043F010035362146B104BC1F3C3100330F6
S2140026500F2803EA040328BF0F200B4343EA007346
S2140026601363CAE74F29074A28BF4F21D2F87438A8
S214002670002BFBD1044A936B23F07F030B43936339
S214002680BBE700BF0020C84300400E4000F8FF0F25
S214002690104A536A13F0300F18D0202913D030296F
S2140026A014D000290C4B08BF4FF44003D2F890100A
S2140026B033EA0101FAD15B0246BFD2F8A000C0F3AC
S2140026C08020012070474FF40003EFE74FF44003EB
S2140026D0ECE700BF00400E40FF33E10702280AD1B6
S2140026E029B1064B4FF48060C3F8A800596612B1B2
S2140026F00220FFF7CDBF0120704700BF00400E400C
S2140027000428F8B548D8304B13F800C02F4B1D5C92
S2140027102F4B33F810702F4B33F810402E4B0029F8
S21400272040D0022839D15C6A14F0300F35D12B4CDA
S214002730E46B5C6AE40705D55E6A26F0300646F070
S21400274010065E62264C244B25441F66AD002B689F
S214002750002BFCD002B36444A4002368002BFCD0FA
S214002760022819D1C1B11C4D696A11F0010116D0B9
S21400277001222021FFF7B2FFD5F89C60012200213C
S2140027800220FFF7BDFFC6F30A010220FFF71EFF77
S2140027902F662368002BFCD0F8BD0021D2E7FFF798
S2140027A077FFE9E701211C66A940D3F890000842AC
S2140027B0FBD1002AF0D00123074903FA0CF3D1F825
S2140027C090201A42FBD1E7E74B8B0300468B0300B1
S2140027D03C8B0300328B030000400E4000300E405E
S2140027E08004F21010B50246B8B901221146FFF770
S2140027F087FFFFF765FC0F4B04225A67FEF764FF5E
S214002800FFF718FCFEF78AFF0446FFF779FC01463F
S2140028102046BDE81040FFF789BC012807D10146D5
S214002820FFF76EFFFFF74CFC024B0322E5E7FFF7CE
S21400283047FCE3E700400E4038B5FEF781FF002175
S214002840044600F0C5FA1248FFF7F4FB01221146D1
S2140028500220FFF755FFFFF733FC0CB1FFF742FCF1
S2140028600C4B02225A67FEF72FFFFFF7E3FBFEF73B
S21400287055FF0546FFF744FC01462846FFF756FC81
S2140028802CB920460121BDE8384000F0A1BA38BD79
S2140028900148E80100400E40012210B51146032011
S2140028A0FFF72EFFFFF70CFC084B05225A67FEF7D2
S2140028B00BFFFFF7BFFBFEF731FF0446FFF720FCD8
S2140028C001462046BDE81040FFF730BC00400E40F1
S2140028D010B504461120FFF7E5FC00210122022076
S2140028E0FFF70EFF184A217C536A23F001030229E2
S2140028F008BF43F001035362144B2178C3F8A014B9
S214002900637AA18843EAC123D362136BA07A217A43
S21400291003F07F630343E08843EAC02343EAC1131E
S21400292003310F2928BF0F2143EA01731363A37BEA
S214002930617B1B0143EA0133E17B0B43217B43EAC6
S2140029400143536310BD00BF00400E400000C84363
S21400295038B50E4D0E4C01461120FFF7A3FCAA6BAE
S2140029604B7814400A78144344EAC3248B7844EA2C
S2140029700364CB7844EA0324AB6BA34205D0002162
S21400298001220846FFF7BCFEAC6338BD00400E408F
S21400299080E4FFF84209054B53F8223000F01F0090
S2140029A023FA00F0C04300F00100704700E100E0A9
S2140029B0034BD86B80F04000C0F38010704700BF18
S2140029C000300E4042EA0322B2F5007F10B5194CE3
S2140029D029D00AD8B2F5807F22D040F201139A425D
S2140029E015D062B9D4F81C320BE0B2F5407F1DD08A
S2140029F040F201339A4210D0D4F8283201E0D4F8DD
S214002A002432C3F30722DBB203600A6010BDD4F899
S214002A1024321A0EC3F30743F6E7D4F82832F8E751
S214002A20D4F81C32F5E7D4F82032EAE7D4F820329E
S214002A30EFE700BF0081E00F08B5FFF7B9FF20B150
S214002A40024AD2F8C830002BFBD108BD0000C643AE
S214002A5008B5FFF7ADFF80B1FFF7EEFF074B19682B
S214002A605A68C1F30121C2F3014291421A688CBF31
S214002A7042F0100222F010021A6008BD00300E402C
S214002A80064B1B68DB0608D5054B1B69C3F30443DE
S214002A90082B02BF034B044A1A60704700300E40F2
S214002AA000400E40D4100020C0EA210170B5FFF7A8
S214002AB07FFF38B12D4B1A781023C2F102029340E3
S214002AC02B4A13612B492C4DD1F8804145F60E0355
S214002AD0C1F880312B6823F0AA03DB05DB0D0B66FB
S214002AE0FFF7AAFF224B1B68D80604F0010415D591
S214002AF0D1F84031DA01FBD4204B1B680B61204B28
S214002B001B78052B0AD11F4B1E68FFF795FF184B45
S214002B1059683046C1F30141FFF708FB184B1B7894
S214002B20023B0A2B0AD8DFE803F006151709090945
S214002B300909091A1D000020FFF754FE2B68DB0761
S214002B405EBF0C4B02221A661CB10A4B0022C3F869
S214002B50802170BD0120EFE7FFF76EFEEEE7FFF77E
S214002B609BFEEBE7FFF70EFDE8E700BFC440002042
S214002B7000300E4000400E40A4260020A026002074
S214002B80C5400020D410002010B50B4C0B4BD4F8D9
S214002B9090201A601120FFF785FB094B1870FFF78D
S214002BA04BFF084B084A5B68C3F301431370074B9F
S214002BB022691A6010BD00BF00400E40A426002007
S214002BC0C540002000300E40C4400020A026002053
S214002BD0064942780B6823F4407343EA0223022A2C
S214002BE00B6004BF024B5B6A704700BF00300E40AC
S214002BF000400E4038B5054608B1FFF7C5FFFFF7A1
S214002C0027FF1A4A136943F00403136127F0CFFA2B
S214002C1027F0CEFA164B174AC3F8242403F5592397
S214002C201B68DB0614D527F099F92FF0B5FB27F0C3
S214002C3099F927F0BEFA104C03F03CFE55B1FFF7A9
S214002C4035FFD4F84C3123F00043C4F84C3138BD7E
S214002C5030BFEEE7FFF714FFD4F84C3123F0004303
S214002C60C4F84C31BDE83840FEF758BD00ED00E032
S214002C7000A000400000FFFF00300E4038B50546BB
S214002C8008B1FFF781FFFFF7E3FE1F4B1F4CD3F899
S214002C90802145F60E01D207C3F8801148BF0022F6
S214002CA04FF42071196648BFC3F88021184A13698B
S214002CB043F004031361174B174AC3F8242427F084
S214002CC076FA2368DB0611D527F048F92FF064FB67
S214002CD027F048F903F0EEFD55B1FFF7E7FED4F80C
S214002CE04C3123F00043C4F84C3138BD30BFF1E717
S214002CF0FFF7C6FED4F84C3123F00043C4F84C313D
S214002D00BDE83840FEF70ABD00400E4000300E40D9
S214002D1000ED00E000A000400000FFFF0E4A03792F
S214002D20916921F03F010B43017843EA8103417822
S214002D3043EA4103817843EAC103C178012908BF09
S214002D4043F0010393611368417923F4403343EA67
S214002D5001431360704700BF00300E402DE9F0417C
S214002D6004460D46FFF724FE60B3DFF86080FFF7E9
S214002D7063FED8F80430C3F301439C4222D0124BC2
S214002D80D3F80031FEF7A0FC022C07464FF01006E1
S214002D9009D12146FFF7CAF9C8F8106095B1BDE819
S214002DA0F041FFF749BEC4F102039E40C8F8106028
S214002DB00DB1FFF741FE2CB921463846BDE8F0417B
S214002DC0FFF7B4B9BDE8F08100400E4000300E4079
S214002DD038B505460C46FFF7EBFDB8B145B90C4BC8
S214002DE0D3F80051FEF770FCC5F3042505FB00057B
S214002DF0084B1B7821463BB1074B9D4204D8022066
S214002E00BDE83840FFF7AABF0020F9E738BD00BF8D
S214002E1000400E40C6400020002D3101034B0278D2
S214002E201A7001210020FFF7D3BF00BFC640002064
S214002E30234B4AF6E85210B5596B5A639A6FD2077D
S214002E40FCD41B6C13F0030306D01E4A01249842E0
S214002E50C2F8B44A1AD110BDA0B1431E012B17D830
S214002E60174A4FF40023D362936FDB07FCD4136C2E
S214002E7023F0030343F001031364114A536A1C034F
S214002E80FCD505E00F4BC3F8B40AE4E7032BE4D007
S214002E900B4B9A6FD207FCD41A6C22F00302024343
S214002EA01A649A6F12F00102FBD10038054C18BF65
S214002EB001200129C4F8B40A08BF5A63CBE700BF53
S214002EC000300E400000C6432DE9F04F00238BB0C3
S214002ED0CDE90433CDE90633CDE90833A0F5E16347
S214002EE0B3F5966F05460191934603D900200BB0C3
S214002EF0BDE8F08F624BDFF88C81D3F81842B0F54E
S214002F00E16F15BF4FEA146AC4F3072AC4F30744F7
S214002F10E4B20694CDF824A0D8F84C60C6F3017647
S214002F208CBF01220022334607A904A815BF4FF420
S214002F30E1674FF496674FF496694FF4167903925B
S214002F40FFF740FDD8F8EC30039AC3F3012308A935
S214002F5005A80293FFF736FDA5EB070CAAEB0402C3
S214002F600CFB02F2B2FBF9F214445445079F049896
S214002F70089A0599BAD8A2EB010E0CFB0EFEBEFB12
S214002F80F9FE11EB0E012CBF4FF0010E4FF0000EB4
S214002F908A42ABD3BEF1000FA8D13A1A0CFB02F25C
S214002FA0B2FBF9F280182CBF0122002287429DD383
S214002FB0002A9BD1029BBBF1000F0FD0D8F85C20F3
S214002FC0B5F5E16722F4FE4218BF012722F002029F
S214002FD042EA470242EA0422C8F85C20019A0AB98B
S214002FE0012084E7264A022ED2F830223ED0032E55
S214002FF03FD0012E14BFD2B2C2F30722120312F43E
S214003000702F7FF473AF1F4EF46E24F47044224387
S214003010F2661B4A022BD2F830222CD0032B2DD07E
S214003020012B14BFD2B2C2F30722120312F4702F80
S2140030307FF45CAF134CD4F8EC3023F470431343A6
S214003040C4F8EC30636E884238BF084623F4FF733A
S214003050E72823F0010328BFE720B5F5E16F18BF86
S21400306043F0010343EA40036366B9E7C2F307424D
S214003070C4E7120EC2E7C2F30742D6E7120ED4E741
S2140030800081E00F00300E402F4B1A6FD96C11F004
S214003090010F02F0060242D0002A40D013284FD972
S2140030A0143813288CBF102308232749013BCA6C09
S2140030B0180322F47F4240EA03231343CB64234BD6
S2140030C0CA6C1B88C2F303222833013202EB82004B
S2140030D003EB5303B3FBF0F3C86C013B072B28BF8D
S2140030E0072320F0EE6040EA036343F48013CB64CA
S2140030F0174BB3F90030002B10DB2833500800EBD9
S214003100420203EB5303B3FBF2F30A6D072B28BF0F
S214003110072322F0700242EA03130B657047D96C4E
S21400312001F00101114304D1092809D90A380928F8
S214003130B8E7DB6C13F00103B7D01AB92728B1E75C
S2140031400423B2E70023B0E700300E40943C002092
S214003150903C0020064A074BD3F88039136F23F0C3
S214003160070303431367044B1888FFF78DBF00BFA0
S21400317000300E400000C643923C0020394B02222D
S2140031802DE9F0419A639B6B03F00F0393420446CC
S21400319003D000252846BDE8F081C288B0F8088034
S2140031A08588B0F90C6047784A2A4ED9B2F5FA7F7E
S2140031B04DD340F6C3139A428CBF4FF040524FF0A7
S2140031C000522849CB6C23F0405323F00103002E15
S2140031D0A8BF43F001031343CB64D1F8EC3043F4AB
S2140031E04073C1F8EC30204B1D80CB6E43F08073EB
S2140031F0CB661E4BD3F8800900B10420FFF7AAFF68
S2140032001B4BA3F800801B4B28461E80FFF73CFF95
S214003210A37BFBB1012B21D0012260881146FFF76A
S21400322053FE05460028B4D00E4AD36B43F48063A1
S214003230D3633846FFF7FCFDA37AA3F1200253427E
S21400324053410A4AC2F89437A4E70022B9E74FF080
S2140032508052B6E7034B084A9A65DDE7014B074AFA
S214003260FAE700BF00300E40923C00200000C64344
S214003270943C0020903C002077402057372110B720
S214003280044AD2F8443423F003030343C2F8443418
S214003290704700BF00A00040072AF8B501F00306FB
S2140032A014461F464FF00F011FD8950000FA05F28E
S2140032B0A940154826F082FF0321144806FA05F2B5
S2140032C0A94026F07BFF12499DF81830114A214488
S2140032D089000F60C1F880300123A340C2F824346F
S2140032E09DF81C30C1F80033F8BDA2F10805AD000A
S2140032F000FA05F2A940084826F060FF03210748B7
S21400330006FA05F2A940DCE700A4004008A4004045
S2140033108020851000A0004004A400400CA40040BB
S21400332000EB4000F8B50D461F46040116463AB1BC
S214003330154801238B402044C7B100F1C0600360EC
S214003340072D4FF00F0114D8AB00104806FA03F211
S2140033509940204426F032FF3EB90B4A0123AB4089
S214003360224477B102F1C0621360F8BD00F18060BC
S214003370E5E7A5F108039B00054806FA03F2994025
S214003380E7E702F18062EFE70CA0004004A00040EF
S21400339008A00040084B4FF40072C3F88020BFF32B
S2140033A04F8FBFF36F8F054B0021D9664FF4AA40AD
S2140033B01962FEF7CBBE00BF00E100E000200E4021
S2140033C0034B03449B0081F001011960704700BF66
S2140033D0A001F11010B5044601214FF4AA40FEF7F3
S2140033E0B5FEB4F8013022785BBA9BB243EA0263BA
S2140033F00B4A136000231362D36253634FF00043FB
S214003400D3664FF0FF339366064A4FF40071C2F856
S2140034108011E3785B01DBB282F80933116010BDDE
S21400342000200E4000E100E0F8B5254D8F7AD1F877
S21400343000C0C3B201269E404FF0300ECB7A0EFB82
S21400344000500C461B05097BAE6643EA0743C0F8EE
S21400345080C094F80DC0C0F888C043EA415322F0FB
S2140034600302C0F88430C0F8982026F086FDEB6E84
S2140034703343EB66237A13B16B6B33436B63637A28
S21400348013B1EB6A3343EB6223792A6823B1DB433B
S2140034901B0263F47F431A4063790BB142EA0322AE
S2140034A0A3790BB122EA0302E3791343044A1360BB
S2140034B0044B9E62D663BDE8F84026F064BD00BFAC
S2140034C000200E4000200E4410B5C0B201248440F7
S2140034D026F053FD054AD36E23EA0403D366044B55
S2140034E01C62BDE8104026F04EBD00BF00200E4016
S2140034F000200E4410B5C0B20124844026F03DFDE5
S214003500074B1A6A224208D19B6A9C430CBF0124CF
S214003510002426F038FD204610BD0024F9E700BF41
S21400352000200E40054B5A685B68054B41F6713229
S2140035301A649A6822F001029A60704700300E40C2
S21400354000000E40034B9A6822F001029A600022A7
S2140035501A64704700000E40094A0A4BD969C90729
S21400356005D512B96FF002007047013AF6E7002A57
S214003570F8D001221861DA60D86940F380007047FD
S2140035808096980000000E4070B509B9002070BD06
S2140035900E4A0023082550F8234094610C4CD56051
S2140035A00133D669F60705D514B96FF00200EEE7C9
S2140035B0013CF6E7002CF8D0D469A40702D499425F
S2140035C0E9D1E3E76FF00100E1E700BF00000E403D
S2140035D0809698002DE9F8431C4B0D4641F6713154
S2140035E01E6C19641A49804648684968996841F013
S2140035F00101B6B2996097084FF00009B94501D3AA
S214003600002005E008EB89042046FFF7A5FF48B137
S2140036100E4B9A6822F001029A600EB100221A64DC
S214003620BDE8F883C4F30A01C1F500618908A7EB79
S2140036300903994228BF19462846FFF7A5FF002828
S214003640E6D1894405EB8105D8E700BF00000E40AF
S21400365000300E40234B41F671311A6C10B51964D8
S21400366021494C684968996841F001019960012137
S2140036701861D960D9694C0792B209D5996821F0CA
S214003680010199600AB100221A644FF0FF3010BDA4
S2140036900221D9601549D869C00700D569B9D8692B
S2140036A010F002000BD0996821F0010199600AB170
S2140036B000221A646FF00100E9E70139EBE741B92F
S2140036C0986820F00100986002B119646FF002005B
S2140036D0DDE7996821F0010199600AB90020D6E774
S2140036E01864FBE700000E4000300E4080969800FD
S2140036F010B590FAA0F2054C2368B2FA82F223EADB
S214003700000091400843206010BD00BF00500E40EE
S214003710014B01229A60704700500E40134B14492B
S214003720F0B500225D68134E1046D6F8E8714C6876
S2140037300B687F070BD4B3F5006F06D012D8B3F52D
S214003740007F02D0B3F5806F01D144F480742B4221
S21400375002D02C4208BF18430132092A01F10801A1
S214003760E3D1F0BDB3F5803FEEE700BF00500E405A
S214003770788B03000040E00F8B784A789B0143EA81
S21400378082030A781343CA7843EA02130A7943EAA3
S214003790C2234A7943EA02338A79043043EA424331
S2140037A00001014A1350704700200440014B186086
S2140037B0704700BF00008442437882789B0043EA4B
S2140037C0021302781343C27843EA4213027943EAAB
S2140037D00223427943EA0233827943EAC233C2794A
S2140037E043EA0243027A43EA4243014A13607047BF
S2140037F0002004400D4AD2F8E430D2F8E0109B00D6
S21400380003F03C03C1F381110B438370D2F8E03020
S21400381003F03F034370D2F8E830D2F8EC2003F010
S214003820F003C2F3031213430370704700FF0FE068
S214003830024BD3F8FC00000E704700BF0081E00F7B
S214003840044BD3F8E4301B0E0A3303F01F030120A9
S214003850984070470081E00F70B5054616461C4636
S21400386019B91448FEF7C4FD0146402C1BD003D8F6
S214003870DCB1202C1BD070BD602CFCD1042303FBD4
S21400388006F2530803EB4113B3FBF2F30A4A203B5C
S21400389002EAC3032A6822F060022A602A681443F8
S2140038A02C606B61E7E70623E9E71023E7E70823C8
S2140038B0E5E700BF40410500F8FF7F0038B5054644
S2140038C0144619B90548FEF793FD01460139640010
S2140038D0B1FBF4F10902696138BD00BF4041050043
S2140038E040F6AA63C36041F205020023036042600B
S2140038F0104A83604361C36482640F4A0366904241
S21400390043678367C3670DD002F5806290420BD091
S21400391002F58062904205D002F58062904203D0A4
S214003920836570470365FBE7036583650023C3650E
S214003930704700BFF9FF01000000014038B504469B
S2140039402BF014FA0FCC044D0FC594E80F0085E851
S2140039500F00002038BD00BFA826002047F6FF73E2
S2140039609A42F0B572D0062972D83A4B5B5C022BAD
S2140039706ED8394D05EBC304DF00A17815F8333057
S214003980012938BF0121012B13D1E0780025401A08
S214003990A84202D80844C0B2F0BD431BA0EB5303B4
S2140039A0666836F913609642CCBF03F1FF301D46B9
S2140039B0EEE760680028EFD0B0F90040944204DBE0
S2140039C0B0F902409442B8BF14468388FF2B04BF68
S2140039D0B0F90620B0F908C03D440FBF0126002606
S2140039E0C8224FF0280C131B93FBFCF333446E786D
S2140039F01BB29E4201DD002B01DA731E1BB201339F
S214003A009BB24FF47A7C071D5D1E2DB24FEAC50EA1
S214003A1000EBC5059E42EA88AD6814FB025222EA16
S214003A20E27202F15C02B2FBFCF205DD37F83350BD
S214003A30954203F10103E7D200EB0E03988890420B
S214003A4028BF1046884238BF0846A4E7FF20A3E7F1
S214003A500020A1E7C08B0300A82600200629F0B5A9
S214003A6061D8324B595C02295DD8314B13F83100CE
S214003A70012816D103EBC1039C78D8785B68012C2B
S214003A80214638BF0121904294BFC1EB0001C1EB33
S214003A900201CAB2001B8242C8BF002233F91200DC
S214003AA0F0BD002A3DD003EBC103596800293AD087
S214003AB09878904202D3B1F90200F1E7DC78B1F9C8
S214003AC000009442ECD95C788B88A3F1FF06013C99
S214003AD0734201F10405E4B2734101F10C07DEB252
S214003AE0B44216D805EBC3034FF47A75B3F9024017
S214003AF05B686A43D21A04EBD47302EB630292FB50
S214003B00F4F29042CCDBB1F902009042C8DC10B26D
S214003B10C6E737F833C0944503F10106E2D33346CF
S214003B20DDE70448BCE70448BAE700BFC08B0300E3
S214003B30A82600200CFEFFFF0080FFFF08B5044803
S214003B40FFF7FCFEBDE8084001202BF034B900BFAB
S214003B50C88B03007FB5094B09490222CDE9012332
S214003B604FF08373CDE903134FF0FF300D2301A907
S214003B7005932BF05CF907B05DF804FB006A1800AB
S214003B8006010C00024B03480122C3F800267047CA
S214003B900010C84300000F40094B98420ED003F5B2
S214003BA08063984209D10122064B03EBC2035A6890
S214003BB0054B13449B0000221A6070470022F3E76F
S214003BC000000F40808C03008005F21010B50446FC
S214003BD02369DB07FCD404F1800026F01BFA014BB6
S214003BE0236510BD510545012DE9F043064689B011
S214003BF0174698460C4600294DD1FFF7C3FF0146ED
S214003C000446304626F0C7FB4FF0010996F86C5084
S214003C1006F15C01C5F10F06C5F10E03F6B22A46A1
S214003C200DF1010001358DF800302EF088FB32468C
S214003C3000210DEB05002EF05CFBC6F11000012301
S214003C403246002168448DF80F302EF052FB26F0E5
S214003C5085F904F1800605466946304626F0DAF90D
S214003C600E4B23652369DB07FCD404A9304626F0F7
S214003C70EEF9284626F076F9424604A938462EF094
S214003C805EFBB9F1000F02D02046FFF785FF00204B
S214003C9009B0BDE8F0834FF00009B7E70551010011
S214003CA02DE9F04F89B00546DDF8489016461F46C8
S214003CB00C4639BBFFF766FF01460446284626F049
S214003CC06AFB4FF0010B6B6C33446B6426F046F9CD
S214003CD08246D6B9504626F045F9BBF1000F0ED005
S214003CE026F03CF905F14C01064604F1840026F066
S214003CF0AEF9304626F036F92046FFF74DFF09B0FC
S214003D00BDE8F08F4FF0000BDDE72B79102EB046A4
S214003D1028BF4FF01008012B0DD110220021684655
S214003D202EF0E7FA3946424668462EF008FB69460A
S214003D302046FFF74BFF394604F18C0026F06AF95F
S214003D40124B2365012363652369DB07FCD404A9B2
S214003D5004F1800026F07BF904A9424648462EF07E
S214003D60EEFA297961B9102268462EF0C2FA494661
S214003D70424668462EF0E3FA69462046FFF726FFDD
S214003D80C1444744A6EB0806A3E700BF480559030D
S214003D9070B5048804F4E043B3F5005F05461ED111
S214003DA0C4F30223042B1AD181F0AA6383F4807330
S214003DB033F47E13204821F47E1618D081F0AA63CF
S214003DC083F4007333F47E1311D0864230D1B4F5F9
S214003DD0105F0CBF6FF086006FF0850070BDB4F505
S214003DE0105F25D1144B21F47E119942F1E78642EB
S214003DF04FEA1143C1F305411AD1B4F5105F17D14C
S214003E0004390C2911D813F001000ED1073A062AFE
S214003E100BD86B88C02B0BD0B3F5807FDED0802B01
S214003E200CBF00206FF08600D8E76FF08600D5E75D
S214003E306FF08500D2E700BF000140052DE9F04F86
S214003E40A7B0DDE93475DDF8D880DDF8EC9008928F
S214003E5006461C468A4629B96FF08602104627B0E9
S214003E60BDE8F08F0028F7D0309B002BF4D0329BB3
S214003E7013B9339B002BEFD1002F7DD1002DEBD152
S214003E80389B002BE8D0B9F1000FE5D03A9B002B09
S214003E90E2D0399B002BDFD0338803F4E042B2F542
S214003EA0005F74D1C3F30222042A70D184F0AA639F
S214003EB083F4807333F47E1306D084F0AA6383F40D
S214003EC0007333F47E136BD1C4F30543319AC9F8FB
S214003ED00030214630460993FFF75AFF0246002875
S214003EE0BCD17288089BB3EBD20F4FEAD20BB3D388
S214003EF0379B9D425FD83A9A099B93425BD84745C9
S214003F0008D27B19984505D239462A4640462EF0F7
S214003F10D6F94746702200210AA82EF0EAF95A463A
S214003F2051460DF12D00CDF850B02EF008FA234B77
S214003F3024F47E149C423BD13388B3F5105F37D10E
S214003F40D9F800300693399B0397CDE90483339B59
S214003F500293329B0193319B00932A46309B0121AA
S214003F600AA826F033FB0246E0B9389B1D60702194
S214003F700AA826F023FB71E7002D81D0B8F1000FC8
S214003F803FF46AAF379B002B7FF47AAF64E742F2C8
S214003F900402934204D184F0052383F4801390E74F
S214003FA0002393E7389900230B60C9F80030DEE75A
S214003FB06FF08502DBE76FF089024FE700014005EE
S214003FC02DE9F04FABB0DDE938A4DDE93B65894665
S214003FD0099298460746002800F0A280002900F0C3
S214003FE09F80349B002B00F09B80369B1BB9379B31
S214003FF0002B40F09580BAF1000F02D1002C40F063
S2140040008F801DB93D9B002B40F08A803E9B002B85
S21400401000F086803A9B002B00F08280359A41465D
S2140040203846FFF7B5FE0246002866D17A88099B17
S214004030B3EBD20F4FEAD20B72D33D9B9C4272D8A1
S214004040AA4509D20AEB0402954205D251462246F9
S21400405028462EF034F9AA46702200210EA82EF02B
S21400406048F95A4649460DF13D00CDF860B02EF0AD
S21400407066F92E4A28F47E1800219045CDE90A11EB
S214004080CDE90C1149D13A88B2F5105F45D1379B7E
S2140040900293369B01930AAF359B00932246CDE9E7
S2140040A00457349B0696CDF80CA00EA826F08EFA80
S2140040B00246C8B93A9B384603EB060C90469C4528
S2140040C01FD11EB13146384626F078FAB8F1000FF7
S2140040D020D03E9A002313601CB12146284626F0C5
S2140040E06DFA6FF0940204E01EB13146384626F0B1
S2140040F065FA70210EA826F061FA10462BB0BDE8CE
S214004100F08F10F8011B13F801EB81EA0E0148EA64
S2140041100108D4E73E9B1C60EBE76FF08502E8E7FA
S2140041206FF08602E9E76FF08902E6E700014005D6
S2140041302DE9F04F8FB09846DDF86CA004909346BA
S2140041400023B8F1000F16D0D8F800401029CDE9AA
S2140041500633CDE908330CBF08231023029300254D
S2140041605D450AD3B8F1000F01D0C8F80040002022
S2140041700FB0BDE8F08F4446E8E75CB1199B1A9A89
S2140041801B5D525D013453400AF8053004F00F04FD
S2140041900135E5E7FFF7F6FC4FF440434460036063
S2140041A0064625F0DBFE029A04990746304625F0BF
S2140041B083FF06F1840318461899019325F02AFF19
S2140041C03846ABEB050725F0CDFE27F00F0706F1C6
S2140041D0A0032F440593AAF11009BD4234D11A9BBF
S2140041E03B440AAD03F1100C186859682A4603C20E
S2140041F0083363451546F7D10F2F0ED90AEB070390
S21400420006AD103B0DF1280C2A4603CA624518601D
S2140042105960154603F10803F6D106F180035744AA
S2140042200AEB0B0903934F4536D125F097FE1899F4
S2140042300546019825F00BFF284625F093FE3046EC
S214004240FFF7AAFC5D468BE725F088FE224B03901D
S21400425033653369DA07FCD41A9B0598591925F09B
S214004260D9FE0F2D0ED90DF1180C09EB05020DF134
S214004270280E634603CB7345106051609C4602F1DE
S2140042800802F6D106A906F1800025F0E0FE0398A4
S21400429025F068FE1035A0E774B925F05FFE0E4BDA
S2140042A0336505463369DB07FCD40398199925F076
S2140042B0CEFE284625F056FE04F138030DEB030229
S2140042C0199B12F8102C1B5D0134534007F8013B74
S2140042D004F00F04A7E700BF480503012DE9F74FD8
S2140042E0DDF848A0DDE90E74DDE9106883461D465A
S2140042F0894621B96FF0860003B0BDE8F08F002A2A
S214004300F8D00FB9002CF5D116B9B8F1000FF1D1DD
S214004310BAF1000FEED02E4B9D4215D00BD82D4B88
S21400432025F4807199420FD003F580639D420BD02F
S2140043306FF08500E0E7284B9D4205D025F400711C
S214004340A3F580739942F2E7BBF80030B3F5105F2F
S214004350EED1BBF80230B2EBD30FE9D3802B02D0FC
S214004360B3F5807FE4D124B3B7420AD23B199E420C
S21400437007D24445BED83946224630462DF09FFF28
S2140043803746164BBBF802B09D424FEADB0BCFD147
S2140043904445AFD814F00F05ACD173190093012231
S2140043A07B195946484626F04AF930B91035AC42D2
S2140043B0F3D8CAF8004000209EE742460021304667
S2140043C02DF097FF0023CAF800306FF0920093E7B5
S2140043D00010C004004040040012C0040044400422
S2140043E02DE9F04F91B0DDE91A4ADDE91C56DDF8FB
S2140043F0789007469B46884629B96FF0860840465F
S21400440011B0BDE8F08F002AF7D014B9BAF1000F4A
S214004410F3D10DB9002EF0D1B9F1000FEDD0574B06
S2140044209B4515D00BD8564B2BF4807199420FD074
S21400443003F580639B450BD06FF08508DFE7514B93
S2140044409B4505D02BF40071A3F580739942F2E7E3
S2140044503B88B3F5105FEFD17B88B2EBD30FEBD37D
S214004460802B02D0B3F5807FE6D1BAF1000F04D1DD
S214004470C9F800A04FF00008C1E7AC420BD204EB2D
S2140044800A039D4207D2B245B7D82146524628466F
S2140044902DF015FF2C46394B7F889B454FEAD707F2
S2140044A058D003F540739B4521D0374B9B45C3D16D
S2140044B0B245A2D81AF00F0B9FD140463B4608AA39
S2140044C0394626F0F6F88046002898D105EB0B030F
S2140044D00093002204EB0B03394608A826F0AFF839
S2140044E0804670BB0BF1100BDA45EFD8C0E7AAF197
S2140044F00D0AB2453FD801238DF810300DF1110298
S214004500234604F10C0153F8040B42F8040B8B42CB
S214004510F9D11B7813704FF48073ADF81E300D344C
S21400452004ABCDE900334046CDE9024500235246B0
S2140045303946FFF7FDFDC9F800A0804600283FF485
S2140045405EAF3246002128462DF0D3FE0023C9F880
S214004550003054E7AAF1100AB2453FF64EAF04AA5F
S21400456004F1100C20686168134603C308346445E0
S2140045701A46F7D1D4E76FF0890840E70010C00468
S214004580004040040012C0040044400410B54FF43C
S2140045902F72044600212DF0ACFE8023C4F88C3028
S2140045A0054BC4F88430012384F8883004F19C005D
S2140045B0BDE8104025F05EBB908C030010B5D0F827
S2140045C0A0400A4684B926F07FFA044610B90024B3
S2140045D0204610BD2D2896BF064B074953F82010DD
S2140045E0064826F0B8FBF3E7D0F8A4101046A0471C
S2140045F0EDE700BF3C8D03009A8C030055B3030023
S214004600F8B590F88060044616B100263046F8BD2E
S21400461026F08BF80028F8D1012384F8803094F82F
S214004620883033B1D4F88410194884F8886026F0AE
S21400463092FB4FF0FF37D4F8B402421C1CD0C4F8EB
S214004640B47210F0FF0520D0204626F06BF82946FD
S214004650204600F0AFFB0028EDD0204626F070F88C
S21400466094F888306BB1D4F88410094826F073FBB0
S214004670002384F8883004E026F052FB431CE0D187
S2140046800126002384F88030C0E70126D3E700BF68
S214004690ECAF0300F8B50B78302B04460D461646F3
S2140046A004D14B7803F0DF03582B11D0284F6A1E35
S2140046B012F8011F002935D128460A2224F0BAFE36
S2140046C0202C03460D4632D1B1FA81F040091BE09A
S2140046D04A1C1F4912F8013F93B928462DF03DFEAB
S2140046E01C4B2340032BA0F1020012D10134A4106E
S2140046F084420AD1A87837288CBF0020012003E026
S214004700CB5C13F04400E5D1F8BDCCBF01200020FF
S214004710FAE7002CB8BF0334B0EBA40FD4BF0120D7
S2140047200020F1E77B5C13F00400C1D1ECE726B172
S214004730084302D0013B61F100050122A240013A84
S2140047401A40002D08BF9A420CBF01200020DBE76C
S214004750E703040003000080F0B503787B2B0146D6
S21400476017D10D4F06460224002216F8015F7D2D54
S21400477005D10B5D6BB9D24302F0010008E07B5D0A
S21400478013F0440002D001320134EEE7202DFBD0B6
S214004790F0BD0020FCE700BFE703040070B5064646
S2140047A00D462DF0DAFD0446304626F0D4FA044EC7
S2140047B0AC4200D370BD304626F0CDFA0134F7E7A0
S2140047C010A703002DE9F84F044602216048FFF7C2
S2140047D0E5FF1E212068FFF7E1FF6368586826F0B2
S2140047E0BAFA5C4826F0B7FA67683B7BFD2B12D80E
S2140047F0D7F80880DFF85891DFF8B4A1DFF870B179
S21400480040462DF0AAFD0C3706464FF0FF3417F849
S214004810013BFF2B01D1BDE8F88F212B14D8212BAB
S21400482014D8DFE803F0178C8884807C7874131320
S214004830131313131313706C6864605C58541313CB
S214004840131313131313504CFE2B34D006B101343C
S214004850414D02E006B10134404D02214846FFF7C3
S2140048609DFF1E214846FFF799FF504626F073FA33
S214004870594628462DF059FD3949002818BF2946C3
S214004880384826F068FA3B78202B02D12B2026F0F9
S21400489056FA354826F05FFA4EB118F804301F2B4A
S2140048A005D018F804001F2801D0B4424BDB294875
S2140048B026F051FAABE706B101342C4DCDE706B130
S2140048C001342B4DC9E7002EA1D001349FE706B175
S2140048D00134284DC1E706B10134274DBDE706B1C6
S2140048E00134264DB9E706B10134254DB5E706B1CA
S2140048F00134244DB1E706B10134234DADE706B1CE
S2140049000134224DA9E706B10134214DA5E706B1D1
S2140049100134204DA1E706B101341F4D9DE706B1D5
S21400492001341E4D99E706B101341D4D95E706B1D9
S21400493001341C4D91E706B101341B4D8DE706B1DD
S21400494001341A4D89E726F0FAF90134A9E700BFC9
S214004950C77103007B920300018E0300FB8D0300EA
S214004960528E0300ECAF0300A0A103001226030042
S214004970098E0300128E0300198E0300248E030096
S2140049802E8E0300388E0300238E03002D8E030028
S214004990378E0300408E0300448E03004C8E0300C7
S2140049A0F58D0300FC8D03004B8E0300F48D030091
S2140049B015B803002DE9F04F9BB005468B460092D4
S2140049C004932DF0CAFC249F049B059000241C60D1
S2140049D00AAA3C6009A9284626F0DEF9064658B918
S2140049E00A982DF0BAFC049B1860D5F89C30039307
S2140049F03446B146039B1BB920461BB0BDE8F08F7A
S214004A00039B9B680193002B69D02E4416F8013B4C
S214004A10202B12D000260C23019A734302EB030AC4
S214004A20D3580293002B55D0DDF82480C84551DBBF
S214004A309AF808302BB1721C35E03B6801333B60B6
S214004A40E4E73B68D5F894200299D21A049B1A60D2
S214004A501AAB03EB890353F8403C069318462DF037
S214004A6050FC07900028E6D102982DF076FCDAF884
S214004A700410079AD7F800A00346087BFE2816D134
S214004A8008F1FF38C8452ED00B68069802920193AD
S214004A902DF063FC0AF10103029A0344E95C21B19C
S214004AA03B6009F101091646B5E70133F6E7D5F88C
S214004AB09420A2EB0A029A42BDDC584606932DF0DB
S214004AC04CFC069B03447B2B1DD91F4A0099584675
S214004AD025F0F7F8059A2B462A449A422AD1039BDA
S214004AE01B68039386E7D5F89420A2EB0A029A4245
S214004AF0E3DDD1F8008058F80C2B82B9059B3B60AB
S214004B00049B1A60E6E7029A0099584625F0D9F801
S214004B100E4A00995846013425F0D3F88BE70099E1
S214004B20584625F0CEF8094A0099584625F0C9F8A7
S214004B300134E0E713F8011B0029CED14FF0200125
S214004B4003F8011CC9E700BF548E030010A703003A
S214004B502DE9F04786B0DDE90EA800241C60064665
S214004B6089468AF800401168154888F800401746BC
S214004B701D468DF81740FCF733FE18B92B68013335
S214004B802B600124D6F89C60002036B914B10123AE
S214004B9088F8003006B0BDE8F087B06868B14B46CC
S214004BA0CDE902A8CDE900750DF11702002125F028
S214004BB02AFF9DF81730002BE8D13668E5E700BFDE
S214004BC0598E03002DE9F0430026ADF5457D0446D9
S214004BD07C22314605A802AF04962DF08AFB00978A
S214004BE003AB802204A92046FFF7E4FE01283ED14D
S214004BF004A82DF0B2FB03993B68A0EB01080B4418
S214004C00234428EAE878054604A8014442461846A4
S214004C102DF095FB00F80860D4F89060039B396887
S214004C20D4F890201944B14212DCD4F89410E81A53
S214004C300244C4F89020014404AAC4F89410D4187E
S214004C4025182B1B002B0DDC0DF5457DBDE8F083EC
S214004C50A05C26F074F8D4F890300133C4F8903095
S214004C600136DBE714F8010B26F069F8E9E7EBDD1F
S214004C7024AD8022314628462DF03BFB44AB4FF452
S214004C800072314618462DF034FB0DF1100903462C
S214004C904A464FF00108314612F8016B002E49D102
S214004CA004A843F828102DF058FB2946334619F877
S214004CB0016B0DF5887C5CF8042B824243D10133EE
S214004CC0984501F8016BF2DAD4F89060039BB34282
S214004CD042DC364A3648234604A926F03CF82846E5
S214004CE02DF03BFB039B3F6806461F44F61AE0196F
S214004CF01D4426EAE67204F198031744984204EB32
S214004D0007014ED204F1900399424AD96A1E8119CE
S214004D100B1A002B39DD12F8013F00F8013BD4F8DE
S214004D2090300133C4F89030D4F894300133C4F88E
S214004D309430EDE7202E01F1010104BF43F828105E
S214004D4008F10108A8E70DF1100E7244D25CB242D9
S214004D50B1D00022EA54B7E7D4F89030E05C25F0F2
S214004D60EEFFD4F890300133C4F890300136ADE74A
S214004D70D4F890200132C4F89020D4F89420013260
S214004D80C4F89420013B002BF2DC0023E3552E44AC
S214004D90731B002B7FF758AF15F8010B25F0CFFFDC
S214004DA0F6E729462DF0CBFA3346ECE7908C030065
S214004DB05E8E03002DE9F843D0E9245604460F46DC
S214004DC0002294F89830012B07D10A2F07D1002330
S214004DD084F898300020BDE8F88300F29F801B2FEF
S214004DE001D10223F4E70D2F0DD1012384F898306A
S214004DF00D2025F0A4FF0A2025F0A1FF0023C4E91A
S214004E0024330120E7E74FF00008082F84F8988045
S214004E1034D1454530DDB5420FD1384625F08FFFF9
S214004E20013D202025F08BFF384625F088FF04F84A
S214004E300580013EC4E92456CCE7FBDA05F1FF39CC
S214004E40384625F07CFF04EB0903A6EB090261193E
S214004E5018462DF034FA04F806800146484825F036
S214004E607AFF013E35464D4501DC4D46E2E7082017
S214004E7025F065FF013DF6E7ACD0DBE77F2F1CD1C0
S214004E80002EA7DDB542A5DA6319691C2144721B02
S214004E9018462DF014FA04F806800146394825F025
S214004EA05AFF0820013E25F04AFFB542F9D1D4F852
S214004EB09430013BC4F894308CE70A2F98D0092F21
S214004EC003D12046FFF77EFE84E7D4F88C30013B02
S214004ED0B3427FF77FAFB54204EB050805F1010941
S214004EE00CDB88F80070D4F89430C4F89090013346
S214004EF0C4F89430384625F022FF6BE7721B414613
S214004F0004EB09002DF0DBF9404625F024FF0820CD
S214004F10013E25F014FFB542F9DDE2E7022B06D18B
S214004F205B2F01D1032353E784F8982049E7032B2E
S214004F307FF450AF413F84F89820032F3FF64AAFE6
S214004F40DFE807F002070A160121204625F0A8FE32
S214004F5040E74FF0FF31F8E7B542BFF63BAF605D84
S214004F6025F0EDFED4F890300133C4F8903031E7E8
S214004F70002D7FF72FAF013DC4F890500820BAE708
S214004F80678E030085A203007FB5094B6A4603F1CE
S214004F901006154618685968144603C40833B34209
S214004FA02246F7D12846FEF7E9F8002004B070BD87
S214004FB06C8E030070B5194B86B001AA03F110067B
S214004FC0154618685968144603C40833B342224687
S214004FD0F7D11B882380124BD3F8B420120317D5C1
S214004FE0A3F500434FF6FF711A8840F247138A4232
S214004FF018BF13460B48ADF80A30FCF7A7FB284647
S214005000FDF766FC3220FDF7DBFA002006B070BD27
S214005010D3F8B830C3F30803ECE700BF7C8E030078
S2140050200081E00F00F0490207B5084B18680190B0
S214005030202301A88DF80430FDF78AFC3220FDF706
S214005040B9FA002003B05DF804FB00BF8E8E0300A3
S21400505010B50C480C4C6FF00403A02113F0800F21
S21400506003F1010207D12344332A83F800131346C1
S214005070F4D1002010BD03F00F03043B034419765F
S2140050801346EBE700ED00E000E100E010B5044653
S21400509024F064FF024B1C6024F064FF002010BD67
S2140050A0D026002010B524F059FF034B1C6824F0CE
S2140050B059FF204610BD00BFD026002038B50C464C
S2140050C01546014610B9FFF7EDFF01462B4622466E
S2140050D003480CF00BF90028D4BF3720002038BD59
S2140050E001AF020030B5144687B00546104625F0DD
S2140050F039FF636983423CBFD4E903315B181B1A4E
S21400510002467BB10F4903910021CDE9013101230D
S21400511004940093D4E90013284624F0CFFE002020
S21400512007B030BD0122627694F82D20002AF6D012
S21400513084F835301321E36920469847636A204691
S2140051409847ECE7E55000002DE9F04788B00446A4
S2140051500F461646984624F010FF8146002E7BD058
S214005160237E03F0FF02002B00F0A380204625F0EC
S214005170F9FE6569A84205D1637ED4E9033213447B
S2140051805D1B01E0F9D9451BB54228BF354624F022
S214005190F4FE94F82D308246002B6ED161692A46C3
S2140051A038462DF0CCF863692B4463612E4621E027
S2140051B0037803F0FD0111295CD1216B814205D1F2
S2140051C0A3F111014B424B4184F83430013E636930
S2140051D0216B8B4203F1010308BF23636361013235
S2140051E095426069E4D1D4E90323216B13449942C4
S2140051F000D12263D4E903236169207A13449942DB
S2140052004FF0000508BF62616576FCF745FD204655
S21400521025F0A8FE6369834232D194F82D302576B6
S214005220E568656103B12563636A20469847224BAB
S21400523003930023049402932369019301230093AC
S21400524063682168207A2A4624F038FE207AFCF724
S21400525043FD504624F097FE4846C8F8006024F008
S21400526092FED8F80030002B0CBF1B20002008B0A0
S214005270BDE8F08707F8013BA9E72E460022AFE716
S21400528001232376207A0DF11E01FCF78DFD9DF893
S2140052901E30002BDAD00DF11F01207AFCF75CFDE2
S2140052A09DF81F100029D1D1207A2246FFF71AFF59
S2140052B0CCE71646D0E700BFE5500000002807DB25
S2140052C0044A4109012300F01F00834042F82130C0
S2140052D0704700BF00E100E0002808DB43090449EE
S2140052E000F01F0001226033824041F823207047FF
S2140052F000E100E070B504460568FFF7D3FE84427F
S21400530002D10020FFF7C2FE95F936603046FFF75F
S214005310E3FF002E0CDB7309194906F01F06203345
S2140053200122B24041F82320BFF34F8FBFF36F8FA7
S21400533095F937603046FFF7CFFF002E0CDB730978
S2140053400F4906F01F0620330122B24041F8232001
S214005350BFF34F8FBFF36F8F287AFCF7DDFC287AF8
S214005360FCF73EFCFCF71AFC0023C4E90033C4E952
S2140053700433A3602846AB6ABDE87040184700BFF8
S21400538000E100E02DE9F0430C461546064687B0DE
S2140053904022002120461F462CF0ABFF002395E854
S2140053A003002A692376EB68E360C4E904232A7DB8
S2140053B084F82C20AA7D2363012384F8343084F8F3
S2140053C035300E9B236284E803000F9B6362109BBC
S2140053D084F82D20E761A3622B7A84F836306B7A46
S2140053E084F837302D4B73602D4BB3602D4B3361F3
S2140053F02D4B346073612D4BF360FCF717FC38B10E
S2140054002B4B984204D01024204607B0BDE8F0830A
S214005410002104F10800FCF791FB07460028F2D1B2
S214005420244B33624FF00108234B84F83C80B36171
S214005430224BF3619DF8483084F83B309DF84430A9
S21400544084F83A30697D84F8390084F8388020463C
S21400545025F099FD95F909904846FFF73DFF484627
S214005460FFF72CFF164B0494CDE902732369CDE9B0
S21400547000836368E2682168207A24F01FFD0446F2
S2140054800028C0D195F908502846FFF725FF284682
S214005490FFF714FF3046FFF7F9FDB5E7D7AF020078
S2140054A04951000053AF020059AF0200F552000008
S2140054B0038000F02DAF020087AF02005FAF02004E
S2140054C0E55000002DE9F04186B01C46524B0C9D7D
S2140054D00293524B01930126514B0093CDE903668C
S2140054E0504B90460A462946FFF74CFF07460028D1
S2140054F056D123682B6463686B64637A85F84930F9
S214005500237A85F84830E37A85F84B30A37A85F815
S2140055104A30637B85F84D30237B85F84C30E37B3F
S21400552085F84F30A37B85F84E303F483146FCF770
S2140055300DFE3E483146FCF709FE617A207A334676
S2140055400422FDF7EDFE33460222E17AA07AFDF74B
S214005550E7FE60683146FCF7F9FD88F800704146C2
S214005560206824F043FE2268536F43F0030353671A
S214005570936F617C23F4F85323F01F0343EA01235F
S214005580A17C0B4393670323536785F8507098F804
S2140055901920202A28D007D8E2B1102A38D023278D
S2140055A0384606B0BDE8F081302AF8D185F850308C
S2140055B002220023617B207BFDF7B2FE2368E27C9B
S2140055C0DA675A6E42F004025A665A6F42F01002C8
S2140055D05A6766B92A6C2068D36C43F00403D36418
S2140055E0052124F0FCFDDBE7022385F85030E17B43
S2140055F0A07B00230422FDF793FE2368217DDA6F4B
S21400560042EA0122DA675A6F42F020025A67E1E75F
S21400561033463E46CAE700BF03B10200F7B00200B9
S2140056208FB1020083B102004041050000350A0038
S21400563007B501F065FB6A4601F0C8FB18B10448DF
S214005640522100F0DFFADDE9000103B05DF804FB4B
S214005650928E030008B501F087FA18B102487A2145
S21400566000F0D0FA002008BD928E030008B500F0C6
S21400567027FA0E4A536A43F4E0235362EFF3088393
S2140056800B4A043B4FF0CD3193420BD2094B01221B
S2140056901A6100F04FFCFFF7DDFFBDE80840064842
S2140056A0FEF74CB943F80419EEE700BF00ED00E042
S2140056B00000002000300E40C88B030007B504220F
S2140056C00DEB0201002029F02EFB042804D005482B
S2140056D040F2671100F096FA019800F0D9FB03B08B
S2140056E05DF804FB928E030010B50A0A4140074895
S2140056F0C9B2082301F00104490804B14140013B46
S21400570013F0FF03F6D181EA020010BD2083B8ED46
S2140057102DE9F843134C144EDFF85480134FDFF88E
S2140057205490002523780BB9BDE8F88356F8043B5F
S21400573022464146002025F0ECFB22782346013421
S214005740002AFAD15B7853B105F00303032B0CBF94
S21400575039464946002025F0DCFB0135E2E73946AC
S214005760F8E700BF12940300001000207A920300AE
S214005770F78E030093D403006B4B1B8840F605227C
S21400578093422DE9F0410ED8B3F5206F0DD840F2C4
S2140057900252934218D040F20172934220D040F257
S2140057A0015293420AD0BDE8F081A3F602235F4C73
S2140057B0032B1ED8DFE803F0376396B25C4900205F
S2140057C0BDE8F04125F0A5BB5A49002025F0A1FB15
S2140057D0564B1A6C5849BDE8F041002025F099BB9D
S2140057E0524A5649BDE8F041D2E92423002025F06C
S2140057F090BB5349002025F08CFB94F868309E0738
S21400580003D55049002025F084FB94F86B305D06E4
S21400581003D54D49002025F07CFB94F96B30002B16
S214005820C1DA4A49CBE74A49002025F072FB94F8D2
S2140058306430980704D0226C3F49002025F069FBAD
S21400584094F96430002B04DA226F4249002025F0D8
S21400585060FB414FDFF80C8100250126626E06FAD8
S21400586005F3134207D057F8252013781BB141469D
S214005870002025F04EFB0135082DEFD193E7374980
S214005880002025F046FB2C49226C002025F041FB29
S21400589094F86530590703D53149002025F039FBC7
S2140058A094F96530002B04DA226F2A49002025F08F
S2140058B030FB294E2B4F0825636EEB40DA0707D5E1
S2140058C056F8252013781BB13946002025F021FB19
